:020000020000FC
:1000000075C0189518951895189568C05AC0189518
:100010001895189518954C43204D657465722C20E1
:10002000504530464B4F00002020204361706163F3
:1000300069746569742020200000202020496E64C6
:1000400075637469652020202020000020204672FE
:10005000657175656E74696520432020000020205D
:100060004672657175656E746965204C20200000CC
:100070002020202020202020202020202020202080
:100080000000202A43616C6962726174696E672A9C
:1000900020200000202A4E6F206F73632A2020202A
:1000A00020202020000020704600206E48002048BC
:1000B0007A00149D26AF3800F500FC0003010F0103
:1000C0001B01CFB78A95DA9579F416F01CB42DB4DC
:1000D000DDBDDCBDDF2DCFBF68941895CFB7FF2005
:1000E00019F4D195FD2ED1E0CFBF1895F894BFED4E
:1000F000BDBFBCEFB7BBC298C3988D9895988B9A3B
:10010000939A8A9A929AB998C19AB898C09AB0E08C
:10011000BBBFB2E8B9BFB0E2B5BFB3E0B3BFB0E0B8
:10012000BFBDB7E0BEBD789483E0DFD1A5D1FF2786
:100130000FEF1FEF2FEF3FEFECE840D10BE61EEE85
:1001400020E030E0ECE93AD102EB12ED2DE730E0AF
:10015000E8E934D10AEB13E022273327E0E62ED179
:100160000AE010E022273327E0E928D104E610E076
:1001700022273327E4E922D195D1E6E172D163D079
:1001800090E0B19B9068E92FEF70EE54C89507FCA2
:100190009298E02DEF77EE0F80D184D162D1B19BA0
:1001A000FECFE92FEF70EE0FE85419D080E5889567
:1001B000B09B05C0B19B07C08823CAF7F2CF43D0DC
:1001C000B09BFECFEECFE92FEF70EE54C89507FC41
:1001D000929A9F70939595300CF09927D4CFC8953B
:1001E0000F92EF5FC8950F92089577D0E8F3E8E794
:1001F000EFD09CD0E6EA2BC170D0B0F3ECE7E8D0AA
:1002000095D0EAEA24C156D078F3ECE9E6D099D04B
:10021000E9D0ACD0E4E9E1D0A9D0EEEA18C14AD0E7
:1002200018F3ECE9DAD08DD0DDD0A0D0E4E9D5D058
:100230009DD0EEEA0CC1ECE7CBD0EAEA08D1E8E7C2
:10024000C7D0E6EA16C130D1E2E80BD180E14DD14A
:10025000F894BB27BDBDBCBDB2BFDD27FF24B2E80B
:10026000B8BFE894789426D025D024D060F3E4E693
:10027000A5D063D0ECE6A2D093981CD02ED0939A50
:1002800010F3E0E6A5D0E0E7A8D05BD0E4E7A5D086
:100290006DD0E8E793D0E8E99BD0A4D052D0E4E653
:1002A0009CD064D04AD0E8E798D060D0ECE786D004
:1002B00008958895F6F7012D122DE894002E012A55
:1002C00031F022273327E8E679D088940895ECD0DE
:1002D000E4E9C7D0E89408940895ECDF50F02DD0FD
:1002E000E0E76CD0ECE679D064D020F0E4E76BD0A6
:1002F00088940895E4E671D0E8E66AD05AD0ECE834
:1003000067D057D06AF0E4E668D053D0E4E65BD01B
:10031000042D152D262D372D14D0ECE64FD0E0CF2F
:10032000089400271127222733270895E4E755D0A2
:1003300008D0E0E752D01AD00895402E512E622EF8
:10034000732E772766275527441BB1E220F4440D0E
:10035000551D661D771D7795679557954795379578
:10036000279517950795BA9589F70895B1E38824DD
:100370009924AA24BB24CC18001F111F221F331F4D
:10038000441F551FBA9509F40895881C991CAA1C8E
:10039000BB1CCC1C84189508A608B708CF0A38F4F3
:1003A000840C951CA61CB71CCF1E8894E5CF08941E
:1003B000E3CF401A510A620A730A08950193119318
:1003C00021933193089541925192619271920895CF
:1003D0000191119121913191089541905190619035
:1003E000719008954F2C5524662477240895ECE8E5
:1003F000A0E0A29319D018D017D0AEE2A29314D0E7
:1004000013D012D0AEE2A2930FD00ED00DD0A081A7
:10041000A03311F0AE3219F4A0E2A193F8CFA030CE
:1004200011F4A0E3A2930895AA1BB1E2001F111FCB
:10043000221F331FBA9541F0AA1FAA5018F4A65FD5
:100440008894F4CF0894F2CFA05DA2930895EF931F
:100450002BD0CDDFE0E8A191AA2311F02AD0FBCF69
:10046000EF91C8953196002019F0A02D22D0F9CF38
:100470000895EF9317D0EDCFC298A0E322D0A8EC57
:100480002DD0A0E313D0A0E311D0A0E20FD0A8E2BA
:1004900022D0A6E020D0ACE01ED0A1E01CD0A6E483
:1004A0001DD00895A0E817C0A0EC15C00AD0A8E0A0
:1004B00015C0C29A02D0B2E011C0AF9302D0AF9182
:1004C000A295A07FB8B3BF70AB2BA8BB0000C39AA6
:1004D0000000C3980895C298F0DFA4E0B9E1FADF04
:1004E000BA95E9F7AA95D1F7089588958823E9F791
:0204F00008956D
:00000001FF
