:020000020000FC
:1000000096C0189518951895189587C079C01895B9
:100010001895189518954C43204D657465722C20E1
:10002000504530464B4F00002020204361706163F3
:100030006974616E636520200000202020496E6491
:10004000756374616E6365202020000020202046C7
:1000500072657175656E6379204320200000202051
:10006000204672657175656E6379204C2020000012
:100070002D2D43616C6962726174696E672D2D204C
:1000800000002D2D4E6F206F7363696C61746F7269
:100090002D2D00002020205265666572656E636517
:1000A0002043202000006DE4E4E46E6E6E707070FA
:1000B000206D6D6DE4E4E46E6E6E474D4D4D4B4B1F
:1000C0004B2020204378203D20004C78203D20000C
:1000D0002043203D2000204C203D20002046203D94
:1000E00020004620200048202000487A2000149D4F
:1000F00026AF0B8B150120012B012B013B013B018E
:10010000CFB70A95DA9589F416F01CB42DB4DDBD8D
:10011000DCBDDF2DCFBF68941895CFB7FF2021F449
:10012000D195FD2ED1E001C07460CFBF1895F89431
:10013000BFEDBDBFBCEFB7BBC298C3988D98959873
:100140008B9A939A8A9A929AB998C19AB898C09AB7
:10015000B0E0BBBFB2E8B9BFB0E2B5BFB3E0B3BF78
:10016000B0E0BFBDB7E0BEBD789408E100D203D2D5
:100170008FEF9FEF2FEF3FEFEBE86DD18BE69EEE19
:1001800020E030E0E7E967D182EB92ED2DE730E047
:10019000E3E961D184E690E020E030E0EFE85BD174
:1001A0007FD18F3F39F49F3F29F48CEA93E020E020
:1001B00030E06AD1E0E64FD1FF2711277727B19BC6
:1001C0007260B09B68D089D0EEEEE10FC89507FC55
:1001D0009298E02DEF77EE0FE6D1EAD1C0D1B19B36
:1001E000FECFE12FEE0FEC501AD004EF8895B09BB4
:1001F00005C0B19B07C00023CAF7F3CF6ED0B09BF8
:10020000FECFE2CFEEEEE10FC89507FC929AB2E086
:1002100071FDB6E013951B1709F41127D5CFC895CA
:100220000F92EF5FC8950F920895A4D0E8F3E4E62B
:100230001CD1C9D0BFD1E4EC92D1E6EAA2EE53C101
:1002400099D090F3E8E611D1BED0B4D1EAEC87D1D1
:10025000E0EBA6EE48C17BD038F3E7E90BD1BED086
:100260000ED1D1D0EFE806D1CED0A4D1ECED77D12C
:10027000EAEBAAEE38C1E8E6F8D09AD1E6ED6FD104
:10028000E0EBA6EE30D1E4E6F0D094D1E0ED67D11A
:10029000E6EAA2EE28C171FF08958AD1E4E95FD1B0
:1002A000E0E6E3D087D1E0ED5AD1E6EAA2EE1BD139
:1002B000B09BFECFB19BFCCFB0E0BA95F1F7E0E682
:1002C000D4D0B09B03C0B19B03C0FBCF019601C04B
:1002D0000197E0E6C0D0D8D0E3CF6AD1E6E13FD1C4
:1002E00069D1E0E73CD104EF42D1F894FDBDFCBDFB
:1002F000F2BFDD27FF24B2E8B8BFE894789427D096
:1003000026D025D050F3ECE6A6D064D0E4E7A3D005
:1003100093981DD02FD0939A00F37B7FE0E6A5D071
:10032000E8E7A8D05BD0ECE7A5D06DD0E4E693D0A9
:10033000E3E99BD0A4D052D0ECE69CD064D04AD064
:10034000E4E698D060D0E8E686D008958895F6F780
:10035000812D922DE894082E092A31F02227332787
:10036000E0E779D08894089525D1E2E8F8D0E894C0
:1003700008940895ECDF50F02DD0E8E76CD0E4E766
:1003800079D064D020F0ECE76BD088940895ECE647
:1003900071D0E0E76AD05AD0EBE867D057D06AF066
:1003A000ECE668D053D0ECE65BD0842D952D262D5D
:1003B000372D14D0E4E74FD0E0CF08948827992751
:1003C000222733270895ECE755D008D0E8E752D02C
:1003D0001AD00895482E592E622E732EEE246627C9
:1003E0005527441BB1E220F4440D551D661DE71C42
:1003F000E7946795579547953795279597958795EE
:10040000BA9589F70895B1E388249924AA24BB24D6
:10041000CC18881F991F221F331F441F551FBA95E0
:1004200009F40895881C991CAA1CBB1CCC1C8418B8
:100430009508A608B708CF0A38F4840C951CA61CAA
:10044000B71CCF1E8894E5CF0894E3CF481A590A09
:10045000620A730A089581939193219331930895C9
:10046000419251926192719208958191919121915D
:1004700031910895419051906190719008954F2C61
:100480005524662477240895BAE0BEBB8DBB03D003
:10049000B395BEBB9DBBE29AE19AE199FECF089568
:1004A000BAE0BEBBE09A8DB3B395BEBBE09A9DB3F4
:1004B000222733270895EBE8A0E0A293AA1BB1E21C
:1004C000881F991F221F331FBA9541F0AA1FAA50F7
:1004D00018F4A65F8894F4CF0894F2CFA05DA2939D
:1004E000E03861F70895AF93EF93E5DFE0E8A1917D
:1004F000A033E9F3A03009F4EA95EF93EC5FEB3811
:100500000AF0EAE8AA27A083E550A191A03319F4E4
:10051000A0E253D0FACFE83842F0AF93A03011F008
:10052000A0E201C0A0E349D0AF91A03071F045D066
:10053000A191E23821F0E53811F0E838B1F7EA95F9
:10054000ACE23BD0A191A030E1F7A0E236D0EF9130
:10055000E158BF91EB0FC895A02D2FD0EF91C89512
:100560003196002019F0A02D28D0F9CF0895889554
:100570000023E9F70895C298A0E323D0A8EC35D072
:10058000A0E31FD0A0E31DD0A0E21BD0A8E22AD098
:10059000A8E028D0A1E026D0A0E527D0A6E022D070
:1005A000ACE020D00895A1E01DD0A0E51ED00895B4
:1005B000A0E818C0A0EC16C0A0E2C29A05D0A2E044
:1005C00014C006D0A8E011C0AF9302D0AF91A2959D
:1005D000BF93C39AA07FB8B3BF70AB2BA8BBC3981F
:1005E000BF910895C298F0DFA4E0BF93B9E105D0B0
:0C05F000BA95E9F7AA95D1F7BF910895DC
:00000001FF
